:1008B5007F3812093D7F0C12093D7F0112093D7FEA
:1008C5008012093D7F471209477F651209477F6FEF
:1008D5001209477F721209477F671209477F651220
:1008E50009477FC012093D7F431209477F681209F6
:1008F500477F691209477F731209477F7B7E001284
:04090500080080BBAB
:0A093D008F90C2A0120909C2A22285
:0A0947008F90D2A0120909C2A2226B
:08090900C2A1D2A27F0A7E0008
:10091100E4FDFCC3ED9FEC9E5015E4FBFA0BBB001C
:0F092100010AEB64714A70F50DBD00010C80E412
:0109300022A4
:07095100EF2430FF0209470B
:040800008E088F09C6
:10080400E4FBFAD3E5099400E50894004027AE0818
:10081400AF097C007D0A120860740A2BF8A605AEA5
:1008240008AF097C007D0A1208608E088F090BBB93
:1008340000010A80CEEB1B70011A8A148B15C3E5E4
:1008440014648094804014740A2515F8E6FF120994
:0B08540051E515151570E7151480E341
:01085F002276
:03000000020931C1
:0C093100787FE4F6D8FD7581150208B54A
:10086000BC000BBE0029EF8DF084FFADF022E4CC7C
:10087000F875F008EF2FFFEE33FEEC33FCEE9DEC45
:10088000984005FCEE9DFE0FD5F0E9E4CEFD22ED8B
:10089000F8F5F0EE8420D21CFEADF075F008EF2FD5
:1008A000FFED33FD4007985006D5F0F222C398FDC6
:0508B0000FD5F0EA2263
:00000001FF
