:1009FC00496E697469616C697A696E672E2E2E0076
:100A0C0054656D70203A200048756D203A200057CF
:100A1C0061697420666F722035004869004C6F0064
:080A2C00202020004572720039
:100B3600D283120A34120A93C2B01209651209143A
:070B4600120800D2B780F392
:100A34007F387E00120B537F0C7E00120B537F0114
:100A44007E00120B537F807E00120B537BFF7A09CA
:100A540079FC120ABA7F887E13120AE17F017E00B4
:030A6400020B532F
:100A93007F017E00120B537F807E00120B537BFF7E
:100AA3007A0A790C120ABA7FC07E00120B537BFFBD
:070AB3007A0A7914020ABA65
:1009650020834B7F017E00120B537BFF7A0A791B94
:10097500120ABA7512007513047FE87E03120AE1A4
:100985007F897E00120B53E5132430FFE43512FEF8
:10099500120BBEE513151370021512C3E512648020
:0F09A500948050D57F017E00120B53120A9322CB
:10091400120BAD8F0AD3EF9420748094804011D2CF
:10092400847F8D7E00120B537BFF7A0A7926802BFD
:10093400C3E50A941B748094805011D2847F8D7E09
:1009440000120B537BFF7A0A7929800FC2847F8DB2
:100954007E00120B537BFF7A0A792C120ABA020822
:010964009CF6
:10080000120BE4120BCC120A678E088F09120A67CA
:100810008E148F15120A678E108F11120A678E0BB5
:100820008F0C120A678E0D8F0E850916D3E516946C
:100830005574809480400B120B4D7BFF7A0A792609
:100840008021C3E516944674809480500B120B4DA2
:100850007BFF7A0A7929800BC2B0120B4F7BFF7A9B
:100860000A792C120ABAE5092515FFE5083514FEA8
:10087000E5112FFFE5103EFEE50C2FFFE50B3EFED8
:10088000EF650E7003EE650D600C120B4D7BFF7A69
:0C0890000A7930120ABA1209B4020B9A5D
:10089C00E50A75F064842430F517E50A75F00A84CE
:1008AC0075F00A84E5F02430F518E50A75F00A8431
:1008BC00E5F02430F5197F877E00120B53D3E51732
:1008CC00943074809480501CE5189430748094801B
:1008DC007F207E005007120BBE7F208010120BBEB3
:1008EC00AF188009AF177E00120BBEAF187E001236
:1008FC000BBEAF197E00120BBE7F607E00120BBECA
:07090C007F437E00120BBEC9
:0109130022C1
:1009B400E51675F00A8475F00A84E5F02430F5171D
:1009C400E51675F00A84E5F02430F5187FC67E003C
:1009D400120B53D3E51794307480948050047F2015
:1009E4008002AF177E00120BBEAF187E00120BBE42
:0709F4007F257E00120BBEFF
:0109FB0022D9
:100B6100758901758CFF758AF1D28C308DFDC28C2F
:030B7100C28D2210
:100B7400758901758CEEE4F58AD28C308DFDC28CBA
:030B8400C28D22FD
:100B8700758901758CB7758AFFD28C308DFDC28C43
:030B9700C28D22EA
:100B9A00758901758C4B758AFED28C308DFDC28C9D
:030BAA00C28D22D7
:100B0100E4F512F513120B9A0513E51370020512A1
:0C0B1100C39414E5126480948040EA2232
:100AE100E4FDFCC3ED9FEC9E5015E4FBFA0BBB004B
:0F0AF100010AEB64644A70F50DBD00010C80E44E
:010B000022D2
:060B4D00D2B07FCA7E0059
:0E0B53008FA0C285C286D287120B74C2872281
:0E0BBE008FA0D285C286D287120B74C2872206
:100ABA008B178A188919AB17AA18A919120B1D6066
:100ACA00150519E5197002051814F9120B1DFF7E98
:070ADA0000120BBE80E022B8
:100BAD00C281D280D2812082FDC28085900FAF0F8D
:010BBD002215
:080BE400C2B7120B87D2B72241
:0C0BCC00D2B720B7FD30B7FD20B7FD22E6
:100A6700E4FFFED2B7FDFC30B7FD120B61EF25E0C6
:100A7700FFEE33FE30B706EF4401FF800020B7FDDD
:0B0A87000DBD00010CED64084C70DC9C
:010A92002241
:03000000020BD818
:0C0BD800787FE4F6D8FD758119020B3619
:100B1D00BB010689828A83E0225002E722BBFE02D6
:090B2D00E32289828A83E4932209
:00000001FF
