:02000000802E50
:10003000119111C431C431183181D2B780F675895C
:1000400001758CFF758AF1D28C308DFDC28CC28D0A
:1000500022758901758CEC758A80D28C308DFDC239
:100060008CC28D22758901758CB2758AFFD28C3055
:100070008DFDC28CC28D22F5A0C285C286D28711A9
:1000800051C28722F5A0D285C286D2871151C2877C
:100090002274381177740C11777401117774801100
:1000A000777448118474651184746C1184746C11B4
:1000B00084746F11847421118478FA1164D8FC74EB
:1000C00001117722740111777480117774541184AF
:1000D00074651184746D118474701184742011849A
:1000E000743A11847420118474C011777448118497
:1000F00074751184746D118474201184743A1184A0
:100100007420118422C281D280D2812082FDC280DB
:100110007590FFE590F520223105311D227487117D
:1001200077E52075F00A84A8F075F00A84A9F075C7
:10013000F00A84AAF0EA24301184E924301184E81A
:1001400024301184746011847443118422C2B71165
:0C01500064D2B722D2B720B7FD30B7FD53
:10015C0020B7FD22E500D2B7780830B7FD113E205C
:10016C00B70330B706C33344018004C33380002087
:10017C00B7FDD8E622314D31543160F5213160F5AF
:10018C00223160F5233160F5243160F52585212677
:10019C0031A3116411642274C61177E52675F00A37
:1001AC0084A8F075F00A84A9F0E924301184E824BD
:1001BC0030118474251184222083457401117774C5
:1001CC00571184746111847469118474741184746A
:1001DC0020118474661184746F1184747211847488
:1001EC0020118474351184780479321164D9FC742B
:1001FC00891177E824301184D8EF7401117711C478
:02020C000022CE
:00000001FF
